:2004000090014074C1F0906270E054F3F0906206E0906200E4F090620FE4F07DC87EFF7FB9
:2004200000DFFEDEFCDDF690620F7403F090620FE0548060F890620FE04408F0906206E0C8
:20044000540460FB7A4F7B077C007D007E9D7F008A828B83E4938C828D83F00AEA70010BFC
:200460000CEC70010DDEE9EF60031F80E390014074C2F07520007A0679C87800120492E519
:200480002070F9D8F7D9F3DAEF90014074C0F002047890620EE4F0906211E054017003027B
:2004A000054CC082C083C0E090014174D0F0D0E0D083D082906220E0F9E0FAE0FBE0FCE00F
:2004C000E0E0FDE0FE900142E9F0900143EAF0E9546064407049EAB4010302054DB402037E
:2004E000020572B40303020613B40403020667B4050302067DB406030206BEB41006EB709B
:200500004202054DB41112ECC394045036B4FF06EB2D5002702D020572B412270206B2EAD7
:20052000B406030206D3B4050F9062117448F0EB547F906200F08014B409089062117448F4
:20054000F080099062117440F07420F0229062117448F0900200EBF09070C7E04408F012C4
:2005600080849070C7E054F7F0906270E0F52502054C9062117440F078107902EDFF90625E
:200580000EE4F0906211E0540160F3906216E0FA906220EA6016E0C0E088828983D0E0F064
:2005A00008E87001091F9062201A80E7EF70089062117448F080089062117440F080BFE5B6
:2005C000232DF523E5243EF524C3EC13FCEB13FBC3EC13FCEB13FB900200ECF0900201EBF9
:2005E000F0C3EE13FEED13FDC3EE13FEED13FD900202EEF0900203EDF09070C7E04408F0C6
:200600001280009070C7E054F7F0906270E0F52502054C9062117440F0EE700AEDC3942143
:200620005004EDFF80027F20906220EF601B8B828C83E493C0E0906220D0E0F00BEB700191
:200640000C1FED70011E1D80E2ED4E7009906211740AF002054C9062117402F0906211E0B0
:20066000540270F80206197520018B218C227523007524009062117448F002054CAA23AB00
:2006800024AC21AD227E00EA6C7006EB6D700280027E019062117440F0906220EEF0E525E4
:2006A000F0906211740AF0E0540270FB7520000204789062117448F075C90B02054C9062E8
:2006C000117440F0906220E525F0906211740AF002054C9062117440F0ECB4010590072B86
:2006E0008011B4020590073D80099062117420F002054CAA82AB83EE7006EDC3941240041F
:200700007F128002EDFF906220EF60168A828B83E493C0E0906220D0E0F00AEA70010B1FF1
:2007200080E7906211740AF002054C12011001FF00002009122000000100000001090212F1
:200740000001010080320904000000FF000000900200E0FA900201E0FB906272EAF09062CF
:2007600071EBF0900202E0FC900203E0FD9062707402F07E107F02EC4D60578E828F83E082
:20078000C0E0906273D0E0F00EEE70010F8E828F83E0C0E0906273D0E0F00EEE70010F8E87
:2007A000828F83E0C0E0906273D0E0F00EEE70010F8E828F83E0C0E0906273D0E0F00EEE01
:2007C00070010F906270E0544070FBED70011C1D80A522900200E0906272F0906271E4F07D
:0C07E0009062707401F0E0548070FB2205
:00000001FF
