:060000000200900204035F
:03000B0002040BE1
:03001300020413D1
:03001B0002041BC1
:03002300020423B1
:03002B0002042BA1
:0300330002043391
:03003B0002043B81
:0300430002044371
:03004B0002044B61
:0300530002045351
:03005B0002045B41
:0300630002046331
:03006B0002046B21
:0300730002047311
:03007B0002047B01
:03008300020483F1
:03008B0002048BE1
:1000900090014074C1F09070C67480F090709EE042
:1000A000B480F990620F7403F090624BE054FBF05F
:1000B00090620FE0548060F890620FE04408F07A9C
:1000C0005C7B037C007D007E9D7F008A828B83E4C5
:1000D000938C828D83F00AEA70010B0CEC70010D99
:1000E000DEE9EF60031F80E390014074C2F0E59DFC
:1000F00054187003020400752001120104E52070F9
:10010000F902040090620EE4F0906211E054016084
:100110007AC082C083C0E090014174D0F0D0E0D0BA
:1001200083D082906220E0F9E0FAE0FBE0FCE0E0BE
:10013000E0FDE0FE900142E9F0900143EAF0E9546D
:100140006064407019EAB4010302018CB402030236
:1001500001ABB40403020246B4052702025CEAB410
:1001600006030202AFB4050F9062117448F0EB541D
:100170007F906200F08014B409089062117448F016
:1001800080099062117440F07420F0229062117422
:1001900048F0900200EBF09070C7E04408F0128045
:1001A000849070C7E054F7F002018B9062117440A4
:1001B000F078107902EDFF90620EE4F0906211E0A9
:1001C000540160F3906216E0FA906220EA6016E053
:1001D000C0E088828983D0E0F008E87001091F90B0
:1001E00062201A80E7EF70089062117448F080086E
:1001F0009062117440F080BFE5232DF523E5243E85
:10020000F524C3EC13FCEB13FBC3EC13FCEB13FB67
:10021000900200ECF0900201EBF0C3EE13FEED1340
:10022000FDC3EE13FEED13FD900202EEF09002030B
:10023000EDF09070C7E04408F01280009070C7E0C5
:1002400054F7F002018B7520018B218C227523005D
:100250007524009062117448F002018BAA23AB242C
:10026000AC21AD227E00EA6C7006EB6D700280025C
:100270007E019062117440F0906220EEF090621165
:10028000740AF0E0540270FBEE6006752001020172
:100290008B75200090620FE4F079C87800D8FED901
:1002A000FA90620F740BF0906200E4F00204009088
:1002B00062117440F0ECB4010590032A8034B4025A
:1002C0000590033C802CB40320EBB4000790034E50
:1002D0007F048008B402129003527F0AEDC39F503E
:1002E00002EDFFAA82AB83801C9062117420F002A1
:1002F000018BAA82AB83EE7006EDC3941240047F9B
:10030000128002EDFF906220EF60168A828B83E4F8
:1003100093C0E0906220D0E0F00AEA70010B1F80E9
:10032000E7906211740AF002018B12011001FF00C4
:100330000020091210000001000200010902120051
:1003400001010080320904000000FF0000000403E6
:1003500009040A035500520042006C00900200E0BC
:10036000FA900201E0FB906272EAF0906271EBF0A9
:10037000900202E0FC900203E0FD9062707402F0D3
:100380007E107F02EC4D60578E828F83E0C0E0903C
:100390006273D0E0F00EEE70010F8E828F83E0C0AA
:1003A000E0906273D0E0F00EEE70010F8E828F83CA
:1003B000E0C0E0906273D0E0F00EEE70010F8E822C
:1003C0008F83E0C0E0906273D0E0F00EEE70010F1A
:1003D000906270E0544070FBED70011C1D80A522FE
:1003E000900200E0906272F0906271E4F0906270AE
:0903F0007401F0E0548070FB225E
:00000001FF
