:0304000002044CA7
:200408000000E2FBEAF2802C0000E0FBEAF08024E6B50202EBF62200E2B50202EBF22200DA
:20042800E0B50202EBF02230F6E0A88220F5D3EAC6F582228B822230F6E6A88220F5D980EA
:01044800CFE4
:0304A50002044905
:0304490002054861
:2004A800AF82BF211D7E09E509700874F725084002AE088E59900CF375F08012062E7582F1
:2004C8000122BF221D7F2DE509700874D325084002AF088F59900CB475F08012062E75821A
:2004E800012275820022AF82BF113A850F167E008E05ED042416F9EE240AF88605A7050E45
:20050800BE050040EBE514FE24F950027E06EE600D8E5990001675F04012062E800312068D
:2005280022750F0022BF121590001C75F040120AEA75590590001C75F04002062E0206FF4D
:200548001205CF120B7F75820012091C1207AF120BDE120BDAE58270F37546059000217579
:20056800F040120A93E58260E37F00EF240AF9EF2421F88606A7060FBF050040EE7401F585
:1E0588000FB521C8E524600B852282852350120B9380B9755000758200120B9380AE90
:200C380012011001000000200912300000010102000104030904320375006E00690066000D
:200C5800790069006E0067002D006300630032003500340034002D00720061006400690036
:200C78006F006B006500790032320343004300320035003400340020005200610064006948
:200C9800006F0020005200580020004B006500790062006F0061007200640032050109066B
:200CB800A101050719E029E715002501750195088102950175088101950675081500256548
:200CD8000507190029658100C00902220001010080320904000001030101000921110100D8
:0C0CF80001222D000705810308000A22DC
:2005A600AE82AF83E4F559F55AC3E5599EE55A9F500FAC59AD5A74012CF559E43DF55A808B
:2005C600E82275C9A875C95822E59DC423541FFF74035FF52690620FE4F0904E201205A611
:2005E6009070C67480F090709EE0FFBF80F89062907401F090620F7403F090624BE054FBDC
:20060600F090620FE030E7F990620FE04408F0906200E4F075C908228526822290620EE475
:20062600F09062117448F022AD82AE83AFF090620EE4F09062117440F0E55924DF50047C68
:20064600208004AB598B047B00C3EB9C5018EB2DF8E43EF98F02888289838AF0120C18901E
:200666006220F00B80E3EC2DFDE43EFEE559C39CF55990620EE4F0BC2003048001E4FC60FB
:20068600089062117402F08006906211740AF0906211E020E1F9EC70A02285825A85835B2D
:2006A60085F05C90620EE4F09062117440F0906211E030E0F9906216E0FCC3E5599C500229
:2006C600AC597B00C3EB9C501AEB255AF8E4355BF9AA5C906220E0888289838AF0120BFD6F
:2006E6000B80E18B07906216E0FEC3EF9E5007906220E00F80EF8C822290620EE4F0906203
:20070600117440F003F022AF827401B527097D387E0C7C120207967402B5270D7DE17E0CCB
:20072600900D03E493FC0207967403B52743EF70087D4A7E0C7C048057BF0112900C80E48A
:2007460093FBE49360087D4E7E0C8B048042BF0212900CB3E493FFE49360087D817E0C8FF2
:2007660004802D90620EE4F09062117440F003F0228528088529098527821204A8E5826013
:20078600012290620EE4F09062117440F003F022E5297008C3E5289C5002AC287F808C59A4
:2007A6008D828E838FF002062E1205C890620EE4F0906211E020E00122906220E0FFE0FED6
:2007C600E0F52AE0F52BE0F52CE0F52DE0F52EE0F52F74605FFBBB406EBE04089062117432
:2007E60048F080FEBE050D9062117448F0C006120400D006BE061212061E858230755901FA
:2008060090003075F04002062EBE0724AC2B7B00AA2A7D00EA4203ED4204E52EFD24DF50E6
:20082600027D207A808D598B828C838AF002062E852A10852B11852C12852D13852E148513
:200846002F158E820204EE530760BF2075BE0B079062117448F022BE0A079062117448F01D
:2008660022BE090F75590890003175F0401206A0020622BE030F75390075590190003975D1
:20088600F04002062EBE020F753A0075590190003A75F04002062EBE0125E4F53BF53CF5DC
:2008A6003DF53EF53FF540F541F542E52EFF24F750027F088F5990003B75F04002062E0256
:2008C60006FFBE060F852B27852E28852F29852A8202070DBE050F9062117448F0747F559B
:1308E6002A906200F022BE09079062117448F0220206FF2B
:2008F900906188E030E2F922E5E170FC221208F975E181120901906000742AF075E10875AE
:20091900430122AF829061C0E4F09061B1F090618A04F0A3F09061B1F0C0071208F9D007CB
:200939009061E9E4F09061917448F0A374CCF09061A5746FF090607E7410F090619374604C
:20095900F09061C67423F09061807443F0906190740EF09061E0E4F0A3F0A37421F0A374CE
:2009790010F0906008E4F0A3F0A314F0A3F0906194E4F0A374E7F0A3C4F0A3741CF0A374ED
:20099900B4F09060037403F0A314F0F5827406F015827402F090600D740FF0906010748057
:2009B900F0A3743BF0BF0103EF8001E4FF60199060127440F0A37406F0A3E4F0A3F0A37489
:2009D90080F0A37406F08014906012E4F0A3F0A3749CF0A37405F0A3E4F0A3F0906018744F
:2009F90009F0A3A374E7F0A3E4F0A3F0A3F0EF6007906019E4F080069060197406F0020980
:200A19000685458222AD82AE83AFF075E191C007C006C005120901D005D006D00775D9061F
:200A39007C00EC2DF9E43EFA8F0389828A838BF0120C18F5D90CBC050040E775E1951209D0
:200A590001906000742AF07F007E00BE0400501BEF701875E109C0061208F9D00690607FE0
:200A7900E0FDE4BD000104FF0E80E08E45754300C007120906D0078F8222AD82AE83AFF0F1
:200A9900E5437003F58222906188E020E204758200227543007C0090607FE0702A85D944D2
:200AB9007C0574FB25464002AC467B00C3EB9C5016EB2DF8E43EF98F02888289838AF0E532
:200AD900D9120BFD0B80E5C004120906D0048C8222AD82AE83AFF0906188E08D828E838FAA
:200AF900F0120BFD74012DFAE43EFB8F0490607FE08A828B838CF0120BFD74022DFAE43EC9
:200B1900FB8F048A828B838CF0E543120BFD74032DFAE43EFB8F0490618EE08A828B838C03
:160B3900F0120BFD74042DFDE43EFE8D828E838FF0E544020BFD08
:200B4F00AD82AE83AFF090620E7401F07C00EC2DF9E43EFA8F0389828A838BF0120C18908D
:200B6F006222F00CBC080040E59062117401F02290620E7401F0A3A3F0906213E4F0158268
:200B8F007420F022AF828F5175520085505375540075550075560075570075580090620EA9
:200BAF007401F0906211E030E1187F00EF2447F9EF2451F88606A7060FBF080040EE754F86
:200BCF00012290005175F040020B4F854F8222E54F70012290620E7401F0906211E030E169
:0E0BEF000122754F0090004775F040020B4F39
:06047B00E478FFF6D8FD55
:200459007900E94400601B7A00900D04780175A000E493F2A308B8000205A0D9F4DAF27538
:02047900A0FFE2
:1B0BFD0020F71130F6138883A88220F509F6A8837583002280FEF280F5F022F7
:200481007800E84400600A790175A000E4F309D8FC7800E84400600C7900900001E4F0A379
:0404A100D8FCD9FAB0
:0D044C0075815C120C34E5826003020449E6
:1C0C180020F71430F6148883A88220F507E6A88375830022E280F7E49322E022EB
:040C340075820022A3
:00000001FF
