:0304000002044CA7
:200408000000E2FBEAF2802C0000E0FBEAF08024E6B50202EBF62200E2B50202EBF22200DA
:20042800E0B50202EBF02230F6E0A88220F5D3EAC6F582228B822230F6E6A88220F5D980EA
:01044800CFE4
:0304A50002044905
:0304490002054861
:2004A800AF82BF211D7E09E509700874F725084002AE088E59900CEB75F080120627758200
:2004C8000122BF221D7F2DE509700874D325084002AF088F59900CAC75F080120627758229
:2004E800012275820022AF82BF113A850F167E008E05ED042416F9EE240AF88605A7050E45
:20050800BE050040EBE514FE24F950027E06EE600D8E5990001675F0401206278003120694
:200528001B750F0022BF121590001C75F040120AE675590590001C75F0400206270206FE60
:200548001205C8120B7B7582001209181207AE120BD675460590002175F040120A8FE58210
:2005680060EA7F00EF240AF9EF2421F88606A7060FBF050040EE7401F50FB521CFE52460A7
:170588000B852282852350120B8F80C0755000758200120B8F80B5A7
:200C300012011001000000200912300000010102000104030904320375006E006900660015
:200C5000790069006E0067002D006300630032003500340034002D0072006100640069003E
:200C70006F006B006500790032320343004300320035003400340020005200610064006950
:200C9000006F0020005200580020004B006500790062006F00610072006400320501090673
:200CB000A101050719E029E715002501750195088102950175088101950675081500256550
:200CD0000507190029658100C00902220001010080320904000001030101000921110100E0
:0C0CF00001222D000705810308000A22E4
:20059F00AE82AF83E4F559F55AC3E5599EE55A9F500FAC59AD5A74012CF559E43DF55A8092
:2005BF00E82275C9A875C95822E59DC423541FFF74035FF52690620FE4F0904E2012059F1F
:2005DF009070C67480F090709EE0FFBF80F89062907401F090620F7403F090624BE054FBE3
:2005FF00F090620FE030E7F990620FE04408F0906200E4F075C908228526822290620EE47D
:20061F00F09062117448F022AD82AE83AFF090620EE4F09062117440F0E55924DF50047C6F
:20063F00208004AB598B047B00C3EB9C5018EB2DF8E43EF98F02888289838AF0120C10902D
:20065F006220F00B80E3EC2DFDE43EFEE559C39CF55990620EE4F0BC2003048001E4FC6002
:20067F00089062117402F08006906211740AF0906211E020E1F9EC70A02285825A85835B34
:20069F0085F05C90620EE4F09062117440F0906211E030E0F9906216E0FCC3E5599C500230
:2006BF00AC597B00C3EB9C501AEB255AF8E4355BF9AA5C906220E0888289838AF0120BF57E
:2006DF000B80E18B07906216E0FEC3EF9E5007906220E00F80EF9062117448F08C82229091
:2006FF00620EE4F09062117440F003F022AF827401B527097D307E0C7C120207957402B5C2
:20071F00270D7DD97E0C900CFBE493FC0207957403B52743EF70087D427E0C7C048057BFA2
:20073F000112900C78E493FBE49360087D467E0C8B048042BF0212900CABE493FFE493601D
:20075F00087D797E0C8F04802D90620EE4F09062117440F003F02285280885290985278288
:20077F001204A8E58260012290620EE4F09062117440F003F022E5297008C3E5289C5002DE
:20079F00AC287F808C598D828E838FF00206271205C190620EE4F0906211E020E001229072
:2007BF006220E0FFE0FEE0F52AE0F52BE0F52CE0F52DE0F52EE0F52F74605FFBBB406EBE7D
:2007DF0004089062117448F080FEBE050D9062117448F0C006120400D006BE06121206178B
:2007FF0085823075590190003075F040020627BE0724AC2B7B00AA2A7D00EA4203ED420452
:20081F00E52EFD24DF50027D207A808D598B828C838AF0020627852A10852B11852C12854A
:20083F002D13852E14852F158E820204EE530760BF2072BE0B079062117448F022BE0A074A
:20085F009062117448F022BE090C75590890003175F040020699BE030F753900755901901B
:20087F00003975F040020627BE020F753A0075590190003A75F040020627BE0125E4F53B69
:20089F00F53CF53DF53EF53FF540F541F542E52EFF24F750027F088F5990003B75F040026D
:2008BF0006270206FEBE060F852B27852E28852F29852A8202070CBE050F9062117448F0BD
:1608DF00747F552A906200F022BE09079062117448F0220206FEE8
:2008F500906188E030E2F922E5E170FC221208F575E1811208FD906000742AF075E10875BB
:20091500430122AF829061C0E4F09061B1F090618A04F0A3F09061B1F0C0071208F5D007D3
:200935009061E9E4F09061917448F0A374CCF09061A5746FF090607E7410F0906193746050
:20095500F09061C67423F09061807443F0906190740EF09061E0E4F0A3F0A37421F0A374D2
:2009750010F0906008E4F0A3F0A314F0A3F0906194E4F0A374E7F0A3C4F0A3741CF0A374F1
:20099500B4F09060037403F0A314F0F5827406F015827402F090600D740FF090601074805B
:2009B500F0A3743BF0BF0103EF8001E4FF60199060127440F0A37406F0A3E4F0A3F0A3748D
:2009D50080F0A37406F08014906012E4F0A3F0A3749CF0A37405F0A3E4F0A3F09060187453
:2009F50009F0A3A374E7F0A3E4F0A3F0A3F0EF6007906019E4F080069060197406F0020984
:200A15000285458222AD82AE83AFF075E191C007C006C0051208FDD005D006D00775D9062C
:200A35007C00EC2DF9E43EFA8F0389828A838BF0120C10F5D90CBC050040E775E1951208DD
:200A5500FD906000742AF07F007E00BE0400501BEF701875E109C0061208F5D00690607FEC
:200A7500E0FDE4BD000104FF0E80E08E45754300C007120902D0078F8222AD82AE83AFF0F9
:200A9500E5437003F58222906188E020E204758200227543007C0090607FE0702A85D944D6
:200AB5007C0574FB25464002AC467B00C3EB9C5016EB2DF8E43EF98F02888289838AF0E536
:200AD500D9120BF50B80E5C004120902D0048C8222AD82AE83AFF0906188E08D828E838FBA
:200AF500F0120BF574012DFAE43EFB8F0490607FE08A828B838CF0120BF574022DFAE43EDD
:200B1500FB8F048A828B838CF0E543120BF574032DFAE43EFB8F0490618EE08A828B838C0F
:160B3500F0120BF574042DFDE43EFE8D828E838FF0E544020BF51C
:200B4B00AD82AE83AFF090620E7401F07C00EC2DF9E43EFA8F0389828A838BF0120C109099
:200B6B006222F00CBC080040E59062117401F02290620E7401F0A3A3F0906213E4F015826C
:200B8B007420F022AF828F5175520085505375540075550075560075570075580090620EAD
:200BAB007401F0906211E030E1187F00EF2447F9EF2451F88606A7060FBF080040EE754F8A
:200BCB00012290005175F040020B4BE54F70012290620E7401F0906211E030E10122754F02
:0A0BEB000090004775F040020B4B2C
:06047B00E478FFF6D8FD55
:200459007900E94400601B7A00900CFC780175A000E493F2A308B8000205A0D9F4DAF27541
:02047900A0FFE2
:1B0BF50020F71130F6138883A88220F509F6A8837583002280FEF280F5F022FF
:200481007800E84400600A790175A000E4F309D8FC7800E84400600C7900900001E4F0A379
:0404A100D8FCD9FAB0
:0D044C0075815C120C2CE5826003020449EE
:1C0C100020F71430F6148883A88220F507E6A88375830022E280F7E49322E022F3
:040C2C0075820022AB
:00000001FF
