:0304000002044CA7
:200408000000E2FBEAF2802C0000E0FBEAF08024E6B50202EBF62200E2B50202EBF22200DA
:20042800E0B50202EBF02230F6E0A88220F5D3EAC6F582228B822230F6E6A88220F5D980EA
:01044800CFE4
:0304A50002044905
:0304490002054861
:2004A800AF82BF211D7E09E509700874F725084002AE088E44900C8175F08012062775827F
:2004C8000122BF221D7F2DE509700874D325084002AF088F44900C4275F0801206277582A8
:2004E800012275820022AF82BF113A850F167E008E05ED042416F9EE240AF88605A7050E45
:20050800BE050040EBE514FE24F950027E06EE600D8E4490001675F04012062780031206A9
:200528001B750F0022BF121590001C75F040120A7875440590001C75F0400206270206FEE3
:200548001205C8120B0D7582001208AA1207AE120B6875310590002175F040120A21E582DE
:2005680060EA7F00EF240AF9EF2421F88606A7060FBF050040EE7401F50FB521CFE52460A7
:170588000B85228285233B120B2180C0753B00758200120B2180B5AD
:200BC20012011001000000200912300000010102000104030904320375006E006900660084
:200BE200790069006E0067002D006300630032003500340034002D007200610064006900AD
:200C02006F006B006500790032360355006E0069006600790069006E006700200052006193
:200C220000640069006F0020005200580020004B006500790062006F006100720064003625
:200C420005010906A101050719E029E7150025017501950881029501750881019506750848
:200C6200150025650507190029658100C009022200010100803209040000010301010009E2
:100C82002111010001222D000705810308000A221B
:20059F00AE82AF83E4F544F545C3E5449EE5459F500FAC44AD4574012CF544E43DF545803A
:2005BF00E82275C9A875C95822E59DC423541FFF74035FF52690620FE4F0904E2012059F1F
:2005DF009070C67480F090709EE0FFBF80F89062907401F090620F7403F090624BE054FBE3
:2005FF00F090620FE030E7F990620FE04408F0906200E4F075C908228526822290620EE47D
:20061F00F09062117448F022AD82AE83AFF090620EE4F09062117440F0E54424DF50047C84
:20063F00208004AB448B047B00C3EB9C5018EB2DF8E43EF98F02888289838AF0120BA290B1
:20065F006220F00B80E3EC2DFDE43EFEE544C39CF54490620EE4F0BC2003048001E4FC602C
:20067F00089062117402F08006906211740AF0906211E020E1F9EC70A0228582458583465E
:20069F0085F04790620EE4F09062117440F0906211E030E0F9906216E0FCC3E5449C50025A
:2006BF00AC447B00C3EB9C501AEB2545F8E43546F9AA47906220E0888289838AF0120B8740
:2006DF000B80E18B07906216E0FEC3EF9E5007906220E00F80EF9062117448F08C82229091
:2006FF00620EE4F09062117440F003F022AF827401B527097DC27E0B7C120207957402B531
:20071F00270D7D6F7E0C900C91E493FC0207957403B52743EF70087DD47E0B7C048057BFE5
:20073F000112900C0AE493FBE49360087DD87E0B8B048042BF0212900C41E493FFE4936064
:20075F00087D0B7E0C8F04802D90620EE4F09062117440F003F022852808852909852782F6
:20077F001204A8E58260012290620EE4F09062117440F003F022E5297008C3E5289C5002DE
:20079F00AC287F808C448D828E838FF00206271205C190620EE4F0906211E020E001229087
:2007BF006220E0FFE0FEE0F52AE0F52BE0FBE0FAE0F52CE0F8530760BF400280028079BE5A
:2007DF0004089062117448F080FEBE05199062117448F0C006C003C002C000120400D00045
:2007FF00D002D003D006BE061212061785822D75440190002D75F040020627BE0726AF2B16
:20081F007C00A92A7D00E94204ED4207E52CFD24DF50027D208F017F808D448C8289838F7F
:20083F00F0020627852A10852B118B128A13852C1488158E820204EEBE060E852B27852C00
:20085F00288829852A8202070CBE050F9062117448F0747F552A906200F022BE09079062A3
:08087F00117448F0220206FE8C
:20088700906188E030E2F922E5E170FC2212088775E18112088F906000742AF075E1087505
:2008A7002E0122AF829061C0E4F09061B1F090618A04F0A3F09061B1F0C007120887D007C5
:2008C7009061E9E4F09061917448F0A374CCF09061A5746FF090607E7410F09061937460BF
:2008E700F09061C67423F09061807443F0906190740EF09061E0E4F0A3F0A37421F0A37441
:2009070010F0906008E4F0A3F0A314F0A3F0906194E4F0A374E7F0A3C4F0A3741CF0A3745F
:20092700B4F09060037403F0A314F0F5827406F015827402F090600D740FF09060107480C9
:20094700F0A3743BF0BF0103EF8001E4FF60199060127440F0A37406F0A3E4F0A3F0A374FB
:2009670080F0A37406F08014906012E4F0A3F0A3749CF0A37405F0A3E4F0A3F090601874C1
:2009870009F0A3A374E7F0A3E4F0A3F0A3F0EF6007906019E4F080069060197406F00208F3
:2009A7009485308222AD82AE83AFF075E191C007C006C00512088FD005D006D00775D9068C
:2009C7007C00EC2DF9E43EFA8F0389828A838BF0120BA2F5D90CBC050040E775E1951208BB
:2009E7008F906000742AF07F007E00BE0400501BEF701875E109C006120887D00690607F37
:200A0700E0FDE4BD000104FF0E80E08E30752E00C007120894D0078F8222AD82AE83AFF000
:200A2700E52E7003F58222906188E020E20475820022752E007C0090607FE0702A85D92F83
:200A47007C0574FB25314002AC317B00C3EB9C5016EB2DF8E43EF98F02888289838AF0E5CE
:200A6700D9120B870B80E5C004120894D0048C8222AD82AE83AFF0906188E08D828E838F05
:200A8700F0120B8774012DFAE43EFB8F0490607FE08A828B838CF0120B8774022DFAE43E27
:200AA700FB8F048A828B838CF0E52E120B8774032DFAE43EFB8F0490618EE08A828B838C01
:160AC700F0120B8774042DFDE43EFE8D828E838FF0E52F020B877C
:200ADD00AD82AE83AFF090620E7401F07C00EC2DF9E43EFA8F0389828A838BF0120BA29077
:200AFD006222F00CBC080040E59062117401F02290620E7401F0A3A3F0906213E4F01582DB
:200B1D007420F022AF828F3C753D00853B3E753F0075400075410075420075430090620ED8
:200B3D007401F0906211E030E1187F00EF2432F9EF243CF88606A7060FBF080040EE753A37
:200B5D00012290003C75F040020ADDE53A70012290620E7401F0906211E030E10122753A1E
:0A0B7D000090003275F040020ADD1E
:06047B00E478FFF6D8FD55
:200459007900E94400601B7A00900C92780175A000E493F2A308B8000205A0D9F4DAF275AB
:02047900A0FFE2
:1B0B870020F71130F6138883A88220F509F6A8837583002280FEF280F5F0226D
:200481007800E84400600A790175A000E4F309D8FC7800E84400600C7900900001E4F0A379
:0404A100D8FCD9FAB0
:0D044C00758147120BBEE582600302044972
:1C0BA20020F71430F6148883A88220F507E6A88375830022E280F7E49322E02262
:040BBE00758200221A
:00000001FF
