:0304000002044CA7
:200408000000E2FBEAF2802C0000E0FBEAF08024E6B50202EBF62200E2B50202EBF22200DA
:20042800E0B50202EBF02230F6E0A88220F5D3EAC6F582228B822230F6E6A88220F5D980EA
:01044800CFE4
:0304A50002044905
:0304490002053475
:2004A80075820022AF82BF102CAE0805088E1074FF6EF511EE75F003A4F512745A6EF51362
:2004C80074552EF5141205BE90001075F04012094F85820922BF132FAE080508752D019067
:2004E800001A75F040C00612063CD006751501850B16850A17851A188E1990001575F040C6
:2005080012094F85820922BF121F90001B75F040120A1B85091F12094BE582F520752D0689
:1A05280090001B75F0400205CA0206A112056B75820112084D12075180FB29
:200ABB0012011001FF000020091230000001010200010902120001010080320904000000AA
:200ADB00FF0000001204030904320375006E0069006600790069006E0067002D0063006345
:200AFB000032003500340034002D0072006100640069006F006B00650079003224035500D9
:200B1B006E0069006600790069006E006700200052006100640069006F00200054005800EB
:010B3B002495
:20054200AE82AF83E4F52DF52EC3E52D9EE52E9F500FAC2DAD2E74012CF52DE43DF52E804F
:20056200E82275C9A875C95822E59DC423541FFF74035FF52190620FE4F0904E20120542DE
:200582009070C67480F090709EE0FFBF80F89062907401F090620F7403F090624BE054FB40
:2005A200F090620FE030E7F990620FE04408F0906200E4F075C908228521822290620EE4DF
:2005C200F09062117448F022AD82AE83AFF090620EE4F09062117440F0E52D24DF50047CF9
:2005E200208004AB2D8B047B00C3EB9C5018EB2DF8E43EF98F02888289838AF0120A9B902E
:200602006220F00B80E3EC2DFDE43EFEE52DC39CF52D90620EE4F0BC2003048001E4FC60B7
:20062200089062117402F08006906211740AF0906211E020E1F9EC70A02285822E85832FE9
:2006420085F03090620EE4F09062117440F0906211E030E0F9906216E0FCC3E52D9C5002E5
:20066200AC2D7B00C3EB9C501AEB252EF8E4352FF9AA30906220E0888289838AF0120A8001
:200682000B80E18B07906216E0FEC3EF9E5007906220E00F80EF9062117448F08C822290EE
:2006A200620EE4F09062117440F003F022AF827401B522097DBB7E0A7C120207387402B5F8
:2006C200220D7DCD7E0A900ADFE493FC0207387403B52243EF70087DE07E0A7C048057BFF7
:2006E2000112900B16E493FBE49360087DE47E0A8B048042BF0212900B3BE493FFE49360B3
:20070200087D177E0B8F04802D90620EE4F09062117440F003F02285232D85242E8522820D
:200722001204A8E58260012290620EE4F09062117440F003F022E5247008C3E5239C500245
:20074200AC237F808C2D8D828E838FF00205CA12056490620EE4F0906211E020E0012290BB
:200762006220E0FFE0FEE0F525E0F526E0FBE0FAE0F527E0F8530760BF400280028079BEC6
:2007820004089062117448F080FEBE05199062117448F0C006C003C002C000120400D000A2
:2007A200D002D003D006BE06121205BA858228752D0190002875F0400205CABE0726AF2655
:2007C2007C00A9257D00E94204ED4207E527FD24DF50027D208F017F808D2D8C8289838FFE
:2007E200F00205CA85250A85260B8B0C8A0D85270E880F8E820204ACBE060E852622852740
:200802002388248525820206AFBE050F9062117448F0747F5525906200F022BE0907906272
:08082200117448F0220206A146
:20082A00906188E030E2F922E5E170FC2212082A75E181120832906000742AF075E108751C
:20084A00290122AF829061C0E4F09061B1F090618A04F0A3F09061B1F0C00712082AD00784
:20086A009061E9E4F09061917448F0A374CCF09061A5746FF090607E7410F090619374601C
:20088A00F09061C67423F09061807443F0906190740EF09061E0E4F0A3F0A37421F0A3749E
:2008AA0010F0906008E4F0A3F0A314F0A3F0906194E4F0A374E7F0A3C4F0A3741CF0A374BD
:2008CA00B4F09060037403F0A314F0F5827406F015827402F090600D740FF0906010748027
:2008EA00F0A3743BF0BF0103EF8001E4FF60199060127440F0A37406F0A3E4F0A3F0A37459
:20090A0080F0A37406F08014906012E4F0A3F0A3749CF0A37405F0A3E4F0A3F0906018741E
:20092A0009F0A3A374E7F0A3E4F0A3F0A3F0EF6007906019E4F080069060197406F0020850
:20094A0037852B8222AD82AE83AFF075E191C007C006C005120832D005D006D00775D906A8
:20096A007C00EC2DF9E43EFA8F0389828A838BF0120A9BF5D90CBC050040E775E195120820
:20098A0032906000742AF07F007E00BE0400501BEF701875E109C00612082AD00690607F4E
:2009AA00E0FDE4BD000104FF0E80E08E2B752900C007120837D0078F8222AD82AE83AFF0C5
:2009CA00E5297003F58222906188E020E204758200227529007C0090607FE0702A85D92AF0
:2009EA007C0574FB252C4002AC2C7B00C3EB9C5016EB2DF8E43EF98F02888289838AF0E536
:200A0A00D9120A800B80E5C004120837D0048C8222AD82AE83AFF0906188E08D828E838FC7
:200A2A00F0120A8074012DFAE43EFB8F0490607FE08A828B838CF0120A8074022DFAE43E94
:200A4A00FB8F048A828B838CF0E529120A8074032DFAE43EFB8F0490618EE08A828B838C6B
:160A6A00F0120A8074042DFDE43EFE8D828E838FF0E52A020A80EE
:06047B00E478FFF6D8FD55
:200459007900E94400601B7A00900B3C780175A000E493F2A308B8000205A0D9F4DAF27502
:02047900A0FFE2
:1B0A800020F71130F6138883A88220F509F6A8837583002280FEF280F5F02275
:200481007800E84400600A790175A000E4F309D8FC7800E84400600C7900900001E4F0A379
:0404A100D8FCD9FAB0
:0D044C00758130120AB7E582600302044991
:1C0A9B0020F71430F6148883A88220F507E6A88375830022E280F7E49322E0226A
:040AB7007582002222
:00000001FF
