:0304000002044CA7
:200408000000E2FBEAF2802C0000E0FBEAF08024E6B50202EBF62200E2B50202EBF22200DA
:20042800E0B50202EBF02230F6E0A88220F5D3EAC6F582228B822230F6E6A88220F5D980EA
:01044800CFE4
:0304A50002044905
:0304490002053475
:2004A80075820022AF82BF102CAE0805088E1074FF6EF511EE75F003A4F512745A6EF51362
:2004C80074552EF5141205BE90001075F0401209BD85820922BF132FAE08050875420190E4
:2004E800001A75F040C00612063CD006751501850B16850A17851A188E1990001575F040C6
:200508001209BD85820922BF121F90001B75F040120A8985091F1209B9E582F5207542062A
:1A05280090001B75F0400205CA0206A112056B7582011208BB12075180FBBB
:200B290012011001FF0000200912300000010102000109021200010100803209040000003B
:200B4900FF0000001204030904320375006E0069006600790069006E0067002D00630063D6
:200B69000032003500340034002D0072006100640069006F006B0065007900322003430080
:1D0B890043003200350034003400200052006100640069006F002000540058002042
:20054200AE82AF83E4F542F543C3E5429EE5439F500FAC42AD4374012CF542E43DF54380A7
:20056200E82275C9A875C95822E59DC423541FFF74035FF52190620FE4F0904E20120542DE
:200582009070C67480F090709EE0FFBF80F89062907401F090620F7403F090624BE054FB40
:2005A200F090620FE030E7F990620FE04408F0906200E4F075C908228521822290620EE4DF
:2005C200F09062117448F022AD82AE83AFF090620EE4F09062117440F0E54224DF50047CE4
:2005E200208004AB428B047B00C3EB9C5018EB2DF8E43EF98F02888289838AF0120B0990AA
:200602006220F00B80E3EC2DFDE43EFEE542C39CF54290620EE4F0BC2003048001E4FC608D
:20062200089062117402F08006906211740AF0906211E020E1F9EC70A022858243858344BF
:2006420085F04590620EE4F09062117440F0906211E030E0F9906216E0FCC3E5429C5002BB
:20066200AC427B00C3EB9C501AEB2543F8E43544F9AA45906220E0888289838AF0120AEE3F
:200682000B80E18B07906216E0FEC3EF9E5007906220E00F80EF9062117448F08C822290EE
:2006A200620EE4F09062117440F003F022AF827401B522097D297E0B7C120207387402B589
:2006C200220D7D3B7E0B900B4DE493FC0207387403B52243EF70087D4E7E0B7C048057BFAA
:2006E2000112900B84E493FBE49360087D527E0B8B048042BF0212900BA5E493FFE493606C
:20070200087D857E0B8F04802D90620EE4F09062117440F003F02285234285244385228275
:200722001204A8E58260012290620EE4F09062117440F003F022E5247008C3E5239C500245
:20074200AC237F808C428D828E838FF00205CA12056490620EE4F0906211E020E0012290A6
:200762006220E0FFE0FEE0F525E0F526E0F527E0F528E0F529E0F52A74605FFBBB406EBEF8
:2007820004089062117448F080FEBE050D9062117448F0C006120400D006BE06121205BA46
:2007A20085822B75420190002B75F0400205CABE0724AC267B00AA257D00EA4203ED420438
:2007C200E529FD24DF50027D207A808D428B828C838AF00205CA85250A85260B85270C8543
:2007E200280D85290E852A0F8E820204AC530760BF2072BE0B079062117448F022BE0A070B
:200802009062117448F022BE090C75420890002C75F04002063CBE030F753400754201900D
:20082200003475F0400205CABE020F75350075420190003575F0400205CABE0125E4F536AD
:20084200F537F538F539F53AF53BF53CF53DE529FF24F750027F088F4290003675F040020E
:2008620005CA0206A1BE060F852622852923852A248525820206AFBE050F9062117448F056
:16088200747F5525906200F022BE09079062117448F0220206A1A7
:20089800906188E030E2F922E5E170FC2212089875E1811208A0906000742AF075E10875D2
:2008B8003E0122AF829061C0E4F09061B1F090618A04F0A3F09061B1F0C007120898D00793
:2008D8009061E9E4F09061917448F0A374CCF09061A5746FF090607E7410F09061937460AE
:2008F800F09061C67423F09061807443F0906190740EF09061E0E4F0A3F0A37421F0A37430
:2009180010F0906008E4F0A3F0A314F0A3F0906194E4F0A374E7F0A3C4F0A3741CF0A3744E
:20093800B4F09060037403F0A314F0F5827406F015827402F090600D740FF09060107480B8
:20095800F0A3743BF0BF0103EF8001E4FF60199060127440F0A37406F0A3E4F0A3F0A374EA
:2009780080F0A37406F08014906012E4F0A3F0A3749CF0A37405F0A3E4F0A3F090601874B0
:2009980009F0A3A374E7F0A3E4F0A3F0A3F0EF6007906019E4F080069060197406F00208E2
:2009B800A585408222AD82AE83AFF075E191C007C006C0051208A0D005D006D00775D90649
:2009D8007C00EC2DF9E43EFA8F0389828A838BF0120B09F5D90CBC050040E775E195120843
:2009F800A0906000742AF07F007E00BE0400501BEF701875E109C006120898D00690607F04
:200A1800E0FDE4BD000104FF0E80E08E40753E00C0071208A5D0078F8222AD82AE83AFF0BE
:200A3800E53E7003F58222906188E020E20475820022753E007C0090607FE0702A85D93F42
:200A58007C0574FB25414002AC417B00C3EB9C5016EB2DF8E43EF98F02888289838AF0E59D
:200A7800D9120AEE0B80E5C0041208A5D0048C8222AD82AE83AFF0906188E08D828E838F7D
:200A9800F0120AEE74012DFAE43EFB8F0490607FE08A828B838CF0120AEE74022DFAE43E4A
:200AB800FB8F048A828B838CF0E53E120AEE74032DFAE43EFB8F0490618EE08A828B838C7A
:160AD800F0120AEE74042DFDE43EFE8D828E838FF0E53F020AEE8F
:06047B00E478FFF6D8FD55
:200459007900E94400601B7A00900BA6780175A000E493F2A308B8000205A0D9F4DAF27598
:02047900A0FFE2
:1B0AEE0020F71130F6138883A88220F509F6A8837583002280FEF280F5F02207
:200481007800E84400600A790175A000E4F309D8FC7800E84400600C7900900001E4F0A379
:0404A100D8FCD9FAB0
:0D044C00758145120B25E58260030204490D
:1C0B090020F71430F6148883A88220F507E6A88375830022E280F7E49322E022FB
:040B250075820022B3
:00000001FF
