:0304000002044CA7
:200408000000E2FBEAF2802C0000E0FBEAF08024E6B50202EBF62200E2B50202EBF22200DA
:20042800E0B50202EBF02230F6E0A88220F5D3EAC6F582228B822230F6E6A88220F5D980EA
:01044800CFE4
:0304A50002044905
:0304490002053C6D
:2004A80075820022AF82BF102CAE0805088E1074FF6EF511EE75F003A4F512745A6EF51362
:2004C80074552EF5141205C690001075F0401209C285820922BF1337AE08050875420190CF
:2004E800001A75F040C006120644D006751501850B16850A17851A188E1990001575F040BE
:200508001209C2E582F50960030205C60206A3BF121F90001B75F040120A8E85091F120904
:20052800BEE582F52075420690001B75F0400205D20206A31205737582011208C012075320
:0205480080FB36
:200B2E0012011001FF00002009123000000101020001090212000101008032090400000036
:200B4E00FF0000001204030904320375006E0069006600790069006E0067002D00630063D1
:200B6E000032003500340034002D0072006100640069006F006B006500790032200343007B
:1D0B8E0043003200350034003400200052006100640069006F00200054005800203D
:20054A00AE82AF83E4F542F543C3E5429EE5439F500FAC42AD4374012CF542E43DF543809F
:20056A00E82275C9A875C95822E59DC423541FFF74035FF52190620FE4F0904E2012054ACE
:20058A009070C67480F090709EE0FFBF80F89062907401F090620F7403F090624BE054FB38
:2005AA00F090620FE030E7F990620FE04408F0906200E4F075C908228521822290620EE4D7
:2005CA00F09062117448F022AD82AE83AFF090620EE4F09062117440F0E54224DF50047CDC
:2005EA00208004AB428B047B00C3EB9C5018EB2DF8E43EF98F02888289838AF0120B0E909D
:20060A006220F00B80E3EC2DFDE43EFEE542C39CF54290620EE4F0BC2003048001E4FC6085
:20062A00089062117402F08006906211740AF0906211E020E1F9EC70A022858243858344B7
:20064A0085F04590620EE4F09062117440F0906211E030E0F9906216E0FCC3E5429C5002B3
:20066A00AC427B00C3EB9C501AEB2543F8E43544F9AA45906220E0888289838AF0120AF332
:20068A000B80E18B07906216E0FEC3EF9E5007906220E00F80EF8C822290620EE4F090625F
:2006AA00117440F003F022AF827401B522097D2E7E0B7C1202073A7402B5220D7D407E0B3B
:2006CA00900B52E493FC02073A7403B52243EF70087D537E0B7C048057BF0112900B89E4EB
:2006EA0093FBE49360087D577E0B8B048042BF0212900BAAE493FFE49360087D8A7E0B8F49
:20070A0004802D90620EE4F09062117440F003F0228523428524438522821204A8E582600A
:20072A00012290620EE4F09062117440F003F022E5247008C3E5239C5002AC237F808C4226
:20074A008D828E838FF00205D212056C90620EE4F0906211E020E00122906220E0FFE0FEEB
:20076A00E0F525E0F526E0F527E0F528E0F529E0F52A74605FFBBB406EBE040890621174AC
:20078A0048F080FEBE050D9062117448F0C006120400D006BE06121205C285822B754201CF
:2007AA0090002B75F0400205D2BE0724AC267B00AA257D00EA4203ED4204E529FD24DF50B4
:2007CA00027D207A808D428B828C838AF00205D285250A85260B85270C85280D85290E851B
:2007EA002A0F8E820204AC530760BF2075BE0B079062117448F022BE0A079062117448F0C7
:20080A0022BE090F75420890002C75F0401206440205C6BE030F7534007542019000347523
:20082A00F0400205D2BE020F75350075420190003575F0400205D2BE0125E4F536F537F51D
:20084A0038F539F53AF53BF53CF53DE529FF24F750027F088F4290003675F0400205D2024E
:20086A0006A3BE060F852622852923852A248525820206B1BE050F9062117448F0747F55D3
:13088A0025906200F022BE09079062117448F0220206A3E8
:20089D00906188E030E2F922E5E170FC2212089D75E1811208A5906000742AF075E10875C3
:2008BD003E0122AF829061C0E4F09061B1F090618A04F0A3F09061B1F0C00712089DD00789
:2008DD009061E9E4F09061917448F0A374CCF09061A5746FF090607E7410F09061937460A9
:2008FD00F09061C67423F09061807443F0906190740EF09061E0E4F0A3F0A37421F0A3742B
:20091D0010F0906008E4F0A3F0A314F0A3F0906194E4F0A374E7F0A3C4F0A3741CF0A37449
:20093D00B4F09060037403F0A314F0F5827406F015827402F090600D740FF09060107480B3
:20095D00F0A3743BF0BF0103EF8001E4FF60199060127440F0A37406F0A3E4F0A3F0A374E5
:20097D0080F0A37406F08014906012E4F0A3F0A3749CF0A37405F0A3E4F0A3F090601874AB
:20099D0009F0A3A374E7F0A3E4F0A3F0A3F0EF6007906019E4F080069060197406F00208DD
:2009BD00AA85408222AD82AE83AFF075E191C007C006C0051208A5D005D006D00775D9063A
:2009DD007C00EC2DF9E43EFA8F0389828A838BF0120B0EF5D90CBC050040E775E195120839
:2009FD00A5906000742AF07F007E00BE0400501BEF701875E109C00612089DD00690607FF5
:200A1D00E0FDE4BD000104FF0E80E08E40753E00C0071208AAD0078F8222AD82AE83AFF0B4
:200A3D00E53E7003F58222906188E020E20475820022753E007C0090607FE0702A85D93F3D
:200A5D007C0574FB25414002AC417B00C3EB9C5016EB2DF8E43EF98F02888289838AF0E598
:200A7D00D9120AF30B80E5C0041208AAD0048C8222AD82AE83AFF0906188E08D828E838F6E
:200A9D00F0120AF374012DFAE43EFB8F0490607FE08A828B838CF0120AF374022DFAE43E3B
:200ABD00FB8F048A828B838CF0E53E120AF374032DFAE43EFB8F0490618EE08A828B838C70
:160ADD00F0120AF374042DFDE43EFE8D828E838FF0E53F020AF380
:06047B00E478FFF6D8FD55
:200459007900E94400601B7A00900BAB780175A000E493F2A308B8000205A0D9F4DAF27593
:02047900A0FFE2
:1B0AF30020F71130F6138883A88220F509F6A8837583002280FEF280F5F02202
:200481007800E84400600A790175A000E4F309D8FC7800E84400600C7900900001E4F0A379
:0404A100D8FCD9FAB0
:0D044C00758145120B2AE582600302044908
:1C0B0E0020F71430F6148883A88220F507E6A88375830022E280F7E49322E022F6
:040B2A0075820022AE
:00000001FF
